:020000040800F2
:100000001808002089010008E1010008E10100084A
:10001000E1010008E1010008E10100080000000022
:10002000000000000000000000000000E1010008E6
:10003000E101000800000000E1010008E101000802
:10004000E1010008E1010008E1010008E101000808
:10005000E1010008E1010008E1010008E1010008F8
:10006000E1010008E1010008E1010008E1010008E8
:10007000E1010008E1010008E1010008E1010008D8
:10008000E1010008E1010008E1010008E1010008C8
:10009000E1010008E1010008E1010008E1010008B8
:1000A000E1010008E1010008E1010008E1010008A8
:1000B000E1010008E1010008E1010008E101000898
:1000C000E1010008E1010008E1010008E101000888
:1000D000E1010008E1010008E9020008E10100086F
:1000E000E1010008E1010008E1010008E101000868
:1000F000E1010008E1010008E1010008E101000858
:10010000E1010008E1010008E1010008E101000847
:10011000E1010008E1010008E1010008E101000837
:10012000E1010008E1010008E1010008E101000827
:10013000E1010008E1010008E1010008E101000817
:10014000E1010008E1010008E1010008E101000807
:10015000E1010008E1010008E1010008E1010008F7
:10016000E1010008E1010008E1010008E1010008E7
:10017000E1010008E1010008E1010008E1010008D7
:10018000E1010008E101000880B582B000AF0F4B2B
:100190007B600F4B3B6007E03B681A1D3A607A6852
:1001A000111D796012681A603B680A4A9342F3D3C2
:1001B00009480A494FF000028842B8BF40F8042BB2
:1001C000FADB00F081F90837BD4680BD060900085A
:1001D0000000002004000020040000201400002083
:1001E00080B400AFFEE700BF80B483B000AF034629
:1001F000FB71084997F907305B09FA7902F01F0291
:10020000012000FA02F241F823200C37BD465DF8C8
:10021000047B704700E100E080B400AF094B01228D
:100220009A60084A074B1B6843F48033136000BF91
:10023000044B1B6803F40033002BF9D0BD465DF876
:10024000047B70470038024080B500AF234A234B3F
:100250001B6B43F001031363204A204B1B6C43F4D8
:10026000003313641E4A1E4B1B6A43F4EE431362B1
:100270001B4A1B4B1B6843F0A0031360194A194B20
:100280009B899BB223F400539BB29381154B40F2A0
:1002900041321A81134A134B9B899BB243F00403EA
:1002A0009BB293810F4A0F4B9B899BB243F400533F
:1002B0009BB293810B4A0B4B9B899BB243F020036B
:1002C0009BB29381074A074B9B899BB243F0100373
:1002D0009BB293812620FFF787FF80BD0038024044
:1002E000000002400044004080B400AF1F4B1B8858
:1002F0009BB203F02003002B1ED01C4B9B889BB2AB
:10030000DAB21B4B1A701A4B1B78DBB20A2B04D0E3
:10031000174B1B78DBB20D2B02D1154B00221A7044
:10032000144B1B68124A1278D1B2134AD154114BA4
:100330001B6801330F4A13600C4B1B889BB203F000
:100340001003002B0ED0094B9B88084B1B880B4BCE
:1003500001221A60074B1B68074A0021D154054B44
:1003600000221A60BD465DF8047B704700440040DF
:1003700013000020040000200C00002008000020D2
:1003800080B400AF364A364B1B6C43F00203136453
:10039000344B00221A80334B00229A80314B1322B7
:1003A0001A85304B40F2E732DA622E4A2D4B1B8B16
:1003B0009BB243F060039BB213832A4A294B1B8BE9
:1003C0009BB243F4C0439BB21383264A254B9B8BBD
:1003D0009BB243F060039BB29383224A214B9B8BD9
:1003E0009BB243F4C0439BB293831D4A1C4B1B6BCF
:1003F00043F0020313631A4A194B1B6B43F00103CA
:100400001363194A184B1B6A43F022031362174AFD
:10041000164B1B6A43F008531362134A124B1B68B6
:1004200043F00A031360114A104B1B6843F4204346
:1004300013600C4A0B4B1B8C9BB243F4885343F064
:1004400011039BB21384074A064B1B889BB243F0EF
:1004500001039BB21380BD465DF8047B704700BF6B
:100460000038024000040040000402400000024046
:1004700080B485B000AFF860B9607A603B60104925
:10048000104B1B68FA6802FB03F34B630C490D4BDE
:100490001B68BA6802FB03F38B630949094B1B68AD
:1004A0007A6802FB03F3CB630549064B1B683A6885
:1004B00002FB03F30B641437BD465DF8047B704701
:1004C000000400400000002080B500AFFFF7A4FE4C
:1004D000FFF7BAFEFFF754FF73E03C483C4900F0D9
:1004E00093F80346002B06D10120002101220023AE
:1004F000FFF7BEFF4BE03548364900F085F803466C
:10050000002B06D10020012100220123FFF7B0FFBC
:100510003DE02E48304900F077F80346002B06D125
:100520000120002100220023FFF7A2FF2FE027482F
:100530002A4900F069F80346002B06D1002000216B
:1005400001220023FFF794FF21E02048244900F016
:100550005BF80346002B06D1012000210022012375
:10056000FFF786FF13E019481E4900F04DF80346D7
:10057000002B06D10020012101220023FFF778FF84
:1005800005E00020002100220023FFF771FF164B39
:1005900000221A60154B00221A6009E0134B1B68F9
:1005A0000A4A0021D154114B1B6801330F4A1360D2
:1005B0000E4B1B68054AD35C002BEFD10B4B00227E
:1005C0001A60094B1B68002B87D185E70C000020BF
:1005D000DC080008E4080008F0080008F808000833
:1005E0000009000804090008080000200400002099
:1005F00000000000000000000000000000000000FB
:10060000A2EB0300704700BF02780B78012A28BFD5
:100610009A42F5D16DE9044540EA0104CDE902674B
:100620006FF0000C4FEA447212B380EA010414F038
:10063000070F6AD100F0070420F0070004F003055B
:1006400021F007014FEAC505F0E8042314F0040F78
:10065000F1E804670CFA05F462EA040266EA0406AB
:100660000AD063EA0403624667EA0407664603E0C9
:10067000F0E80423F1E8046782FA4CF582EA060404
:10068000A4FA8CF46CBB83FA4CF583EA0705A5FA4F
:100690008CF595B950E9022351E9026782FA4CF5CD
:1006A00082EA0604A4FA8CF483FA4CF583EA07057F
:1006B000A5FA8CF52543DBD09CB92DBAB5FA85F4A3
:1006C00024F0070427FA04F1DDE9026723FA04F3B2
:1006D00003F0FF0001F0FF01FDE80445A0EB01007D
:1006E000704724BAB4FA84F424F0070426FA04F11B
:1006F000DDE9026722FA04F202F0FF0001F0FF01D7
:10070000FDE80445A0EB0100704714F0030F3CD155
:1007100010F0030428D150F8082B51F8083B82FA56
:100720004CF582EA0305A5FA8CF55DB950F8042C66
:1007300051F8043C82FA4CF582EA0305A5FA8CF5DF
:10074000002DE8D02DBAB5FA85F424F0070423FA79
:1007500004F122FA04F202F0FF0001F0FF01FDE8CB
:100760000445A0EB010070474FEAC40420F00300E9
:1007700050F8082B21F0030151F8083B0CFA04F45F
:1007800062EA040263EA0403C9E710F003041AD022
:10079000A1EB040120F00300E40750F8042B06D07D
:1007A0000FD28B785FFAA2F4E41A06D12BB1CB7882
:1007B0005FFAB2F4E41A00D11BB920465DF8104B81
:1007C000704701F1040150F8042BCC0721F003011C
:1007D00051F8043B48D824D222F07F4482FA4CF5E9
:1007E00094EA1325A5FA8CF50AD165B951F8043BB2
:1007F00084EA0204B4EB036F0ED150F8042BEBE74C
:100800004FEA132355E035F07F454DD10878FDE8D8
:100810000445C0F1000070474FEA126203F0FF0385
:1008200047E002EA1C4482FA4CF594EA1345A5FA23
:100830008CF50AD165B951F8043B84EA0204B4EBA3
:10084000034F0CD150F8042BEBE74FEA134330E091
:1008500015EA1C4528D10B884FEA124229E04FEADD
:10086000124203EA1C4324E002F0FF0482FA4CF532
:1008700094EA1365A5FA8CF50AD165B951F8043BE1
:1008800084EA0204B4EB032F09D150F8042BEBE700
:100890004FEA13630DE015F0FF0F05D10B684FEA27
:1008A000122223F07F4304E04FF00000FDE80445EE
:1008B000704712BA1BBA82FA4CF482EA0304A4FA13
:1008C0008CF5B5FA85F402FA04F203FA04F34FEA60
:1008D0001260FDE80445A0EB13607047466F727725
:1008E000617264004261636B7761726400000000B2
:1008F00052696768740000004C656674000000006F
:060900003200000034008B
:04090600E703000003
:0400000508000000EF
:00000001FF
